:1000000083C000009DC000009BC0000099C000009C
:1000100097C0000095C0000093C0000091C0000090
:100020008FC000008DC000008BC00000A3C5000081
:1000300087C0000085C0000083C0000081C00000B0
:100040007FC000007DC000007BC0000079C00000C0
:1000500077C0000075C0000073C0000071C00000D0
:100060006FC000006DC000006BC0000069C00000E0
:1000700067C000001201100102000008EB034420D9
:1000800000000102DC0109023E00020100C0320949
:1000900004000001020201000524001001042402F2
:1000A000060524060001070582030800FF09040174
:1000B00000020A000000070504024000050705834E
:1000C00002400005040309042003650064002D00BC
:1000D00073006F006C007500740069006F006E00A3
:1000E00073002E006400650000001C036E005200C7
:1000F00046002D0055005300420020007C002000E7
:10010000430044004300000011241FBECFEFD2E0A3
:10011000DEBFCDBF11E0A0E0B1E0EEE4F6E102C049
:1001200005900D92A832B107D9F711E0A8E2B1E02D
:1001300001C01D92AA3CB107E1F7DDD30C94250B59
:100140005FCF48B190E09C012170307056E0220FE3
:10015000331F5A95E1F720954F7B242B28B925B101
:100160008670907035E0880F991F3A95E1F7809579
:100170002F73822B85B90895A0E0B1E0ED91FC9139
:100180001197818112969C911297892B8183ED9111
:10019000FC911197828112969C911297892B8283F0
:1001A00013961C921397149681E0AC30B80731F780
:1001B0000895A0E0B1E013968C911397813069F413
:1001C000ED91FC911197828112969C911297892B47
:1001D000828313961C92139706C0882321F08150C6
:1001E00013968C931397149681E0AC30B80719F7E7
:1001F0000895CF93DF938330D0F4E82FFF27E7FDF6
:10020000F095EE0FFF1FEE0FFF1F9F0120503F4F95
:10021000E901A881B98112969C911297EE5FFE4F79
:1002200080818095982312969C938AEF8B83DF912F
:10023000CF9108958EBD0DB407FEFDCF8EB5089504
:1002400084B1876084B985B1897F85B9289A249A59
:100250002C980895F5DF81E58CBD0895DF92EF922B
:10026000FF920F931F93CF93DF937B018A01D22ECE
:100270002898E0DFC0E0D0E012C0E114F10411F4EE
:1002800080E004C0F701EC0FFD1F8081D3DF011572
:10029000110521F0F801EC0FFD1F80832196CD158B
:1002A00060F3289ADF91CF911F910F91FF90EF900B
:1002B000DF9008952898BEDF289A08951F93162F7F
:1002C0002898B8DF812FB6DF289A1F9108951F93D1
:1002D000182F80E060E0F2DF112319F0682F6260D0
:1002E00002C0682F6D7F80E2E9DF1F9108950F93B0
:1002F0001F93289887E19EDF182F80E09BDF289AC4
:1003000000EA15C014FF07C081EED4DF107787E242
:10031000612FD4DF0EC02C9A802F8A95F1F72C988C
:10032000289887E187DF182F80E084DF289A84FFF0
:10033000E9CF1F910F91089580E060E0BFDF682F43
:10034000616080E2BBDF2C9A08952C9880E060E029
:10035000B5DF682F6E7F80E2B1CF1F93CF93DF931D
:10036000EC01162F8FEFA6DF80FF02C080E011C0E6
:10037000111614F480EA02C0119580EBBE0140E032
:1003800050E0212F6BDF2C9A80EA8A95F1F72C98A8
:1003900081E0DF91CF911F9108951F93CF93DF9359
:1003A000EC0187E160E08ADF80FD08C080E660E064
:1003B00085DF182F813220F082EE7CDF10E006C04E
:1003C00081E660E070E0AE01212F48DF812FDF91F0
:1003D000CF911F91089581E08093BC0180E88093C4
:1003E0006C01089581E08093BC0181E880936C01E9
:1003F00008950F931F93CF93DF93EC01062F142FD3
:1004000081E0F7DEA2DF112309F40195CE01602F10
:10041000A4DF6DDF91DFDF91CF911F910F910895E0
:10042000FC0120898091280120FF0CC0882321F045
:100430001092BB011092BC011092280180E0D9DE1D
:1004400081E00AC0813021F01092BB011092BC0102
:1004500081E08093280182E0CCCE86E072CE81E0FC
:1004600070CE8CE091E0DFC78CE091E0B6D780FDE4
:1004700002C085E001C080E064CE0F931F93CF934C
:10048000DF93EC01E7DE10E00DC0812F8F5F1E5F70
:100490009E01280F311DC9010E940F0B682F802F6C
:1004A00080620CDFCE01810F911D0E940F0B082F7F
:1004B0008F3F59F781EEFEDE82EEFCDEDF91CF91B9
:1004C0001F910F9108951F93DF93CF9300D000D019
:1004D0000F92CDB7DEB79C01162F623018F041E0C5
:1004E00050E002C045E050E0CE010196B9010E9403
:1004F000FF0A123010F425E001C021E0165F812FC1
:100500008062BE016F5F7F4F40E050E0A7DE0F903A
:100510000F900F900F900F90CF91DF911F91089542
:100520000F931F93DF93CF9300D000D00F92CDB7DE
:10053000DEB7BC018E010F5F1F4FC80145E050E0E0
:100540000E94FF0A80E3B80140E050E025E086DE2B
:100550000F900F900F900F900F90CF91DF911F9100
:100560000F9108950F931F9380E090E086DF0EE1D6
:1005700010E0C801D5DFC80160E0A5DFDDDE83E261
:1005800090E00E940F0B80932300A1DE84E290E0B4
:100590000E940F0B8093BA011F910F91089584B7A9
:1005A000877F84BF88E10FB6F89480936000109233
:1005B00060000FBE90E080E80FB6F8948093610071
:1005C000909361000FBE3E9A469A84B1806C84B9C4
:1005D00085B1806C85B9BFD2CFDDC4CFCF92DF9219
:1005E000EF92FF921F93CF93DF9380912C018E3176
:1005F00009F4BCC08F3110F58B3009F485C08C3004
:1006000068F4813009F464C0813008F451C082304C
:1006100009F471C08A3009F007C174C0803109F44F
:100620004EC0813120F48C3009F0FEC079C0843195
:1006300009F498C0853109F0F7C0F7C0843609F491
:100640007FC0853658F48032E9F0803208F4EDC07E
:100650008832B1F0893209F0E7C0C7C08A3F09F497
:100660008BC08B3F30F4893CB9F18A3C09F0DCC087
:100670003AC08E3F09F492C08F3F09F0D5C092C0B6
:1006800010E0AEC08EE691E088DE982F80936D0179
:10069000882339F080E880936C019E5F9093BC01C1
:1006A000C4C081E880936C0181E08093BC01BDC02F
:1006B0006091BB0161508DE291E041E006C0609124
:1006C000BB0161508DE291E040E093DE84DEADC07D
:1006D00080912D01FCDDFACF60912D016093230004
:1006E00083E290E006C060912D016093BA0184E23C
:1006F00090E09DD7EBCF8093BC0180E880936C01A4
:1007000087E019C02FDFE2CF80912D018F7D80938C
:100710002D01806260916E01D1DD80936C01D6CF96
:1007200080912D018F7D80932D0192E09093BC01EB
:1007300090E890936C0160E0C1DD80936D0175C01D
:1007400040912D014F5F4093BC01415080E8809360
:100750006C018DE691E06EE271E050E040D780914F
:10076000BB01EBCF8EE291E0DBDEB0CF8EE291E019
:1007700060912D01A8DEAACF85E08093BC0180E8BE
:1007800080936C0110926D018EE280936E0181E086
:1007900080936F018DE08093700147C082E029DD76
:1007A00011CF43C082E025DD84B7826084BF29E099
:1007B00088E190E00FB6F894A895809360000FBE92
:1007C00020936000FFCFE12FF0E080912D019F0189
:1007D000280F311DC901E45DFE4F638128D71F5FDB
:1007E00080912E01181778F371CF80E880936C0107
:1007F00080912D01C82FD0E010912E01C12EDD2453
:100800002DE6E22E21E0F22EEC0EFD1E06C0CE01FA
:1008100006D7F70181937F012196CC15DD05B8F34A
:100820001F5F1093BC0101C0DDDD1092BB01DF91A1
:10083000CF911F91FF90EF90DF90CF9008951F937D
:1008400080912A0190912B01019690932B01809326
:100850002A0188589341B9F410922B0110922A0171
:1008600087E060E02BDD182F8F3F21F481E0C1DCB1
:1008700080E0BFDC80912901181719F08F3F09F43F
:1008800071DE1093290180912801813011F482E0FA
:10089000B0DC9091BB019923D9F08091280181307F
:1008A00021F482E0A6DC9ADE10C08091BC0188238E
:1008B00001F5913218F080E28093BB018CE291E067
:1008C0006091BB014091BA0194DD1092BB0111C04F
:1008D0008091BC01882369F480912801882349F420
:1008E0008CE691E05ADD8093BC01882311F080E012
:1008F00080DC1F9108951F93CF93DF9350DE8CE02F
:1009000091E06CEA71E0C0D481E01BDC78948CE06B
:1009100091E064D4182F882371F0C0E0D0E08CE01F
:1009200091E084D4FE01E45DFE4F80832196C117DF
:10093000B0F31093BB013DDC82DF4091BC01442346
:1009400041F08CE091E06CE671E050E0BCD4109294
:10095000BC018CE091E0FCD42CD4D9CF382F282FC7
:100960002EC0822F8F708093E900231721F4762FF9
:10097000942F50E006C07091EC009091ED005091E2
:10098000F00091FF1BC08091EB008E7F8093EB0005
:100990008091ED008D7F8093ED008091EB00816070
:1009A0008093EB007093EC009093ED005093F00077
:1009B0008091EE0087FD02C080E008952F5F253012
:1009C00080F23F703093E90081E008950F931F9308
:1009D000CF93DF93062FEC0110E029C0288122235A
:1009E00021F16B81E981FA818C81823010F432E04F
:1009F00001C036E040E088E090E003C04F5F880F20
:100A0000991F8E179F07D0F36295660F660F607C63
:100A1000822F881F8827881F682B4295407F432B91
:100A2000822F8F709BDF882329F01F5F2596101778
:100A3000A8F281E0DF91CF911F910F9108958091ED
:100A4000C20188239CF404C08091C1018823B9F0BD
:100A50008091E80082FFF8CF8091E8008B77809347
:100A6000E80008958091C101882349F08091E80051
:100A700080FFF8CF8091E8008E778093E80008959A
:100A80004091E4005091E50024E68091EC0080FF65
:100A900024C08091E80080FD1EC08091C1018823A0
:100AA00011F482E00895853011F483E00895809177
:100AB000EB0085FF02C081E008958091E4009091F1
:100AC000E5008417950709F3222311F484E00895C3
:100AD0002150AC01DACF80E008958091E80082FFD8
:100AE000DCCFF9CF41D043D08091D8008F7780936D
:100AF000D8008091D80080688093D8008091D80079
:100B00008F7D8093D80084E089BD86E089BD09B4DB
:100B100000FEFDCF1092C1011092BD011092BF01E5
:100B20001092BE0180E060E042E018DF8091E100B9
:100B30008E7F8093E1008091E20081608093E200EB
:100B40008091E20088608093E2008091E0008E7FD7
:100B50008093E0000895E3E6F0E080818E7F80835B
:100B600081E08093C001BECF1092E2000895109200
:100B7000E10008951F920F920FB60F9211242F9348
:100B80003F934F935F936F937F938F939F93AF9315
:100B9000BF93EF93FF938091E10082FF0AC08091A1
:100BA000E20082FF06C08091E1008B7F8093E1002C
:100BB000FFD28091E10080FF17C08091E20080FFAA
:100BC00013C08091E2008E7F8093E2008091E2006A
:100BD00080618093E2008091D80080628093D80089
:100BE00019BC1092C1013BDC8091E10084FF2DC053
:100BF0008091E20084FF29C084E089BD86E089BD40
:100C000009B400FEFDCF8091D8008F7D8093D8007D
:100C10008091E1008F7E8093E1008091E2008F7EE1
:100C20008093E2008091E20081608093E2008091F5
:100C3000BD01882331F48091E30087FD02C081E08B
:100C400001C084E08093C10108DC8091E10083FF52
:100C500022C08091E20083FF1EC08091E100877F67
:100C60008093E10082E08093C1011092BD018091E8
:100C7000E1008E7F8093E1008091E2008E7F80937F
:100C8000E2008091E20080618093E20080E060E019
:100C900042E064DE8DD2FF91EF91BF91AF919F91C1
:100CA0008F917F916F915F914F913F912F910F9015
:100CB0000FBE0F901F9018959C014091C801509154
:100CC000C9014617570718F4F90190E03DC06115B6
:100CD000710511F0AB01F8CF8091E8008E77809319
:100CE000E80040E050E0F0CF8091C1018823F1F1AD
:100CF0008530F1F18091E80083FF02C081E0089522
:100D00008091E80082FD2CC08091E80080FF1CC02B
:100D10008091F200282F30E007C081918093F1008C
:100D2000415050402F5F3F4F4115510519F0283079
:100D3000310598F390E02830310509F491E0809175
:100D4000E8008E778093E8004115510569F69923F4
:100D500059F606C08091C101882341F0853041F0E9
:100D60008091E80082FFF6CF80E0089582E0089548
:100D700083E008959C014091C8015091C901461734
:100D8000570718F4F90190E040C06115710511F0A2
:100D9000AB01F8CF8091E8008E778093E80040E0C7
:100DA00050E0F0CF8091C101882309F440C0853024
:100DB00009F43FC08091E80083FF02C081E00895FC
:100DC0008091E80082FD2DC08091E80080FF1DC069
:100DD0008091F200282F30E008C084918093F100C8
:100DE0003196415050402F5F3F4F4115510519F04A
:100DF0002830310590F390E02830310509F491E076
:100E00008091E8008E778093E8004115510551F6F6
:100E1000992341F606C08091C101882341F08530B5
:100E200041F08091E80082FFF6CF80E0089582E0F3
:100E3000089583E00895BF92CF92DF92EF92FF92E0
:100E40000F931F93CF93DF93182F092F7B016A0114
:100E500017DEB82E8823B1F5812F902F9C01E90170
:100E6000C114D10439F0F60180819181E81AF90AA0
:100E7000C80FD91F00E010E022C08091E80085FD76
:100E800016C08091E8008E778093E80092D1C1145B
:100E9000D10449F0F60180819181800F911F9183E7
:100EA000808385E010C0ECDD882349F00CC0899177
:100EB0008093F1000894E108F1080F5F1F4FE114DF
:100EC000F104D9F68B2DDF91CF911F910F91FF90F7
:100ED000EF90DF90CF90BF9008950F931F93DF9313
:100EE000CF93CDB7DEB7AC970FB6F894DEBF0FBE89
:100EF000CDBFE2ECF1E08091F100819321E0EA3C8A
:100F0000F207C9F7AEDA8091E80083FF38C180911B
:100F1000C2013091C301353009F487C0363040F446
:100F20003130C9F1313070F0333009F028C133C0AD
:100F3000383009F4F6C0393009F405C1363009F00B
:100F40001EC197C0803821F0823809F018C108C04E
:100F50009091BE018091BF01882399F0926011C0E9
:100F60008091C6018F708093E9008091EB0090E042
:100F700025E0969587952A95E1F7982F9170109224
:100F8000E9008091E800877F8093E8009093F1006A
:100F90001092F100D1C0882319F0823009F0EFC01F
:100FA00090E08F719070009721F0029709F0E7C0F0
:100FB0000CC08091C401813009F0E1C01092BF01E2
:100FC000333069F58093BF012AC08091C401882322
:100FD00031F52091C6012F7009F4D1C02093E900AA
:100FE0008091EB0080FF1BC0333021F48091EB0037
:100FF000806213C08091EB0080618093EB0081E000
:1010000090E002C0880F991F2A95E2F78093EA00CA
:101010001092EA008091EB0088608093EB001092C0
:10102000E9008091E800877F8AC0882309F0A7C083
:101030001091C4011F770FB7F8948091E800877F63
:101040008093E800FCDC8091E80080FFFCCF809179
:10105000E3008078812B8093E30080688093E30035
:10106000112311F482E001C083E08093C1010FBF1E
:1010700086C08058823008F082C08091C40190916F
:10108000C50123E08C3D920709F033C083E08C83D7
:101090008AE28B837FB7F894DE0115966EE040E01C
:1010A00050E011E2E62FF0E010935700849140FFEA
:1010B00003C082958F706F5F8F70282F30E08A3069
:1010C00018F0C901C79602C0C901C0968D939D93BF
:1010D0004F5F5F4F4431510529F77FBF8091E80092
:1010E000877F8093E800CE0103966AE270E0E4DD3A
:1010F00012C06091C601AE014F5F5F4F42D2BC018A
:10110000009709F43CC08091E800877F8093E80055
:1011100089819A812FDE8091E8008B778093E800A7
:101120002EC0803861F58091E800877F8093E800C9
:101130008091BD018093F1008091E8008E778093CB
:10114000E8007DDC1CC08823D1F49091C40192306A
:10115000B0F48091E800877F8093E8009093BD0110
:101160006EDC8091BD01882331F48091E30087FD1E
:1011700002C081E001C084E08093C10175D98091F3
:10118000E80083FF0AC08091EB0080628093EB004F
:101190008091E800877F8093E800AC960FB6F894C2
:1011A000DEBF0FBECDBFCF91DF911F910F9108958C
:1011B00008951F938091C101882371F01091E90077
:1011C0008091EC001092E9008091E80083FF01C05B
:1011D00084DE1F701093E9001F910895FC01809137
:1011E000C1018430F9F484899589A689B78900976B
:1011F000A105B105B9F086818F708093E9008091D7
:10120000E80082FF0FC08091F200882331F48091C2
:10121000E8008B778093E80005C08091F200282FCA
:1012200030E002C020E030E0C9010895FC01809167
:10123000C101843029F584899589A689B7890097E9
:10124000A105B105E9F086818F708093E900809156
:10125000E80082FF15C08091F200882319F42FEF77
:101260003FEF04C08091F100282F30E08091F20020
:10127000882341F48091E8008B778093E80002C0D6
:101280002FEF3FEFC9010895FB012EE0DB011D9216
:101290002A95E9F723E023832EED39E03187208773
:1012A00027E539E033872287958784870895FC01F5
:1012B00084859585BBDF9C0197FF02C02EEF3FEF31
:1012C000C90108950895FC018091C101843089F419
:1012D00084899589A689B7890097A105B10549F048
:1012E00081818F708093E900CB01BA0140E050E02A
:1012F000A2CD82E00895FC018091C101843019F5EE
:1013000084899589A689B7890097A105B105D9F087
:1013100081818F708093E9008091F2008823A9F089
:101320009091E8008091E8008E778093E80095FD29
:101330000CC0A6DB982F882349F48091E8008E77B3
:101340008093E80003C092E001C090E0892F0895E7
:10135000FC018091C101843051F484899589A6896A
:10136000B7890097A105B10511F0CF01C4CF089549
:101370001F93FC01162F8091C1018430E1F4848910
:101380009589A689B7890097A105B105A1F081814A
:101390008F708093E9008091E80085FD08C08091FE
:1013A000E8008E778093E8006BDB882329F41093A4
:1013B000F10080E001C082E01F910895282FFB0119
:1013C00084859585622FD4DF882319F420E030E0EE
:1013D00002C02FEF3FEFC9010895CF93DF93EC01D7
:1013E000409660E070E04BE050E002D182E08C83F8
:1013F000898783E08E87CE01019661E0E7DA882352
:1014000071F0CE01069661E0E1DA882341F0CE0169
:101410000B9661E0DBDA882319F081E001C080E0FF
:10142000DF91CF910895CF93DF93EC018091E80095
:1014300083FFA4C0888190E02091C6013091C7014C
:101440002817390709F09AC08091C301813269F0E9
:10145000823220F4803209F091C03CC0823209F41B
:101460006BC0833209F08AC07BC08091C201813A8F
:1014700009F084C08091E800877F8093E800809124
:10148000E80080FFFCCF8C899D89AE89BF8980935D
:10149000F100292F3A2F4B2F55272093F1009D0162
:1014A000442755272093F1008B2F9927AA27BB2784
:1014B0008093F100888D8093F100898D8093F100F5
:1014C0008A8D8093F1008091E8008E778093E80008
:1014D000B6DA54C08091C201813209F04FC08091C8
:1014E000E800877F8093E80005C08091C1018823D0
:1014F00009F444C08091E80082FFF7CF8091F100A9
:101500009091F1002091F1003091F1008C8B9D8B36
:101510002E8B3F8B8091F100888F8091F100898F15
:101520008091F1008A8F8091E8008B778093E800AA
:1015300086DACE01C7DE22C08091C2018132F1F489
:101540008091E800877F8093E80079DA8091C40178
:101550009091C501998B888BCE010E9410020EC01C
:101560008091C201813251F48091E800877F80939D
:10157000E80065DACE016091C401A4DEDF91CF916D
:101580000895DA01923049F0933061F09130F9F426
:10159000E4E7F0E022E130E01EC0E6E8F0E02EE310
:1015A00030E019C0813049F0813018F0823079F490
:1015B00008C0E4ECF0E0849107C0E8ECF0E084912E
:1015C00003C0EAEEF0E08491282F30E004C0E0E0B0
:1015D000F0E020E030E0ED93FC93C9010895FB01B9
:1015E000DC0102C001900D9241505040D8F708959F
:1015F000DC0101C06D9341505040E0F70895DC01DB
:10160000CB01FC01F999FECF06C0F2BDE1BDF89A0D
:10161000319600B40D9241505040B8F70895F999B1
:10162000FECF92BD81BDF89A992780B50895262FE7
:10163000F999FECF1FBA92BD81BD20BD0FB6F894B7
:0E164000FA9AF99A0FBE01960895F894FFCF1A
:10164E00230040002300800026004000008340005D
:10165E0000010440000001820800000100000000AB
:08166E00000000000000000074
:00000001FF
